:020000040800F2
:10000000986000204501000809080008F50500086F
:10001000050800083D040008F7170008000000006C
:10002000000000000000000000000000E10E0008D9
:100030004104000800000000890D0008C3110008F9
:100040005F0100085F0100085F0100085F01000810
:100050005F0100085F0100085F0100085F01000800
:100060005F0100085F0100085F0100085F010008F0
:100070005F0100085F0100085F0100085F010008E0
:100080005F0100085F0100085F0100085F010008D0
:100090005F0100085F0100085F0100085F010008C0
:1000A0005F0100085F0100085F0100085F010008B0
:1000B00025120008B11200085F0100085F01000866
:1000C0005F0100085F0100085F0100085F01000890
:1000D0005F010008C91300083D1500085F01000812
:1000E0005F0100085F0100085F0100085F01000870
:1000F0005F0100085F0100085F0100085F01000860
:100100005F0100085F0100085F0100085F0100084F
:100110005F0100085F0100085F0100085F0100083F
:100120005F0100085F0100085F0100085F0100082F
:10013000DFF80CD000F034F800480047351A00080A
:10014000986000200648804706480047FEE7FEE723
:10015000FEE7FEE7FEE7FEE7FEE7FEE7FEE7FEE777
:10016000C51100083101000830B505462A460B4686
:1001700012F8010B13F8014B08B1A042F8D01CB1E2
:10018000002802D06D1CF1E7284630BDCAB2401EDF
:1001900010F8011F8A4202D00029F9D100207047CF
:1001A000064C074D06E0E06840F0010394E80700C4
:1001B00098471034AC42F6D3FFF7BEFF181B000877
:1001C000381B000870B58C1810F8015B15F0070398
:1001D00001D110F8013B2A1106D110F8012B03E0E0
:1001E00010F8016B01F8016B5B1EF9D12B0705D4E8
:1001F0000023521E0DD401F8013BFAE710F8013B31
:10020000CB1A921C03E013F8015B01F8015B521E4C
:10021000F9D5A142D8D3002070BD00002DE9F041EE
:1002200000260227AFE0052E25D2DFE806F00325E1
:1002300047688700681CC5B200F02AFB52A2022161
:10024000002000F0B3FB00F0FDFC044684B901205F
:1002500000F0D5FC04463CB950A20421002000F077
:10026000A5FB0025012606E0204600F095FF02E0F0
:10027000204600F091FF7DE0681CC5B200F008FB4D
:100280004BA20221002000F091FB00F0DBFC0446B1
:1002900084B9022000F0B3FC04463CB93FA204211B
:1002A000002000F083FB0025022606E0204600F037
:1002B00073FF02E0204600F06FFF5BE000F0E8FA19
:1002C00040A20221002000F071FB00F0D8FC04469F
:1002D00034B941A20421002000F068FB032609E0A4
:1002E00042A20421002000F061FB204600F054FFF0
:1002F000002500264FF4FA7001F066FB3AE000F0AA
:10030000C7FA3FA20221002000F050FB4FF4FA7020
:1003100001F05AFB00F0D0FC044634B93DA20421A0
:10032000002000F043FB042603E00026204600F0F6
:1003300033FF4FF47A7001F047FB1BE0394602208F
:1003400000F0D7FC044674B900F0A2FA36A20221EC
:10035000002000F02BFB01F099FB40F2DC5001F093
:1003600033FBBDE8F08100F093FA0026204600F050
:1003700013FF00BF00BF4FF4C87001F025FB0A2D2A
:1003800001D1FFF74BFF4EE720202020C7EBB0B490
:10039000CAD6D6B82020202000000000202020202F
:1003A000D6B8CEC6D5FDB3A3202020200000000083
:1003B000202020C7EBD4D9B0B4D2BBB4CE202020AB
:1003C000000000002020B6D4B1C8C1BDB4CED6B85C
:1003D000CEC620200000000020202020B6D4B1C8C6
:1003E000B3C9B9A620202020000000002020202032
:1003F000B6D4B1C8CAA7B0DC20202020000000007D
:100400002020C9FAB3C9D6B8CEC6C4A3B0E520200F
:1004100000000000C9FAB3C9D6B8CEC6C4A3B0E57F
:10042000B3C9B9A6000000002020C2BCC8EBD6B8F2
:10043000CEC6B3C9B9A620200000000000BFFEE769
:100440007047000038B5002540F2DC5001F0BCFADE
:1004500000F0B8FB04465CB900F01AFA0FA20221C2
:10046000002000F0A3FA4FF4FA6001F0ADFA02E0C8
:10047000204600F091FE40F2DC5001F0A5FA0CA2FB
:100480000621282000F092FA012002232A460621A4
:100490000090412000F058FB38BD000020C7E5BFA8
:1004A000D5D6B8CEC6BFE2B3C9B9A62000000000B9
:1004B00049443D00044900E0521C11F8013B002B67
:1004C000FAD1500870470000DC0B00202DE9F04104
:1004D000024600250026002000230024002791F872
:1004E00003C00CF00F0591F803C00CF0100CBCF128
:1004F000000F03D091F802C04CEA050591F800C046
:10050000BCF1000F31D0146800202BE04FF0010C3B
:100510000CFA00F3B1F800C00CEA03069E4220D1A9
:1005200083004FF00F0C0CFA03F7BC4305FA03FCF1
:100530004CEA040491F803C0BCF1280F06D14FF037
:10054000010C0CFA00FCC2F814C00AE091F803C0D8
:10055000BCF1480F05D14FF0010C0CFA00FCC2F8B9
:1005600010C0401C0828D1D31460B1F800C0BCF101
:10057000FF0F34DD546800202EE000F1080C4FF02E
:10058000010808FA0CF3B1F800C00CEA03069E4219
:1005900021D183004FF00F0C0CFA03F7BC4305FA8E
:1005A00003FC4CEA040491F803C0BCF1280F05D108
:1005B00000F1080C08FA0CF8C2F8148091F803C096
:1005C000BCF1480F07D100F1080C4FF0010808FA00
:1005D0000CF8C2F81080401C0828CED35460BDE847
:1005E000F0810246002093680B400BB1012000E02F
:1005F0000020704700BFFEE7002001E0411CC8B2A8
:100600000A28FBDB7047000008B50121082000F034
:10061000DDFB4020ADF8000003208DF8020014201F
:100620008DF8030069460648FFF750FF8020ADF8BB
:10063000000069460248FFF749FF00F01DF808BDB9
:10064000000C014010B50120094908600949C1F8B2
:100650009801FFF7D1FF002005490860FFF7CCFFA4
:1006600000200449C1F89801FFF7C6FF10BD000043
:100670009C8121420080214210B50020054908607C
:1006800001200549C1F89801FFF7B6FF0120014993
:10069000086010BD9C8121420080214210B50120DC
:1006A0000C490860FFF7A8FF01200B49C1F8980129
:1006B000FFF7A2FF80210948FFF793FF08B101244B
:1006C00000E0002400200349091F0860FFF794FFA1
:1006D000204610BD9C81214200802142000C014037
:1006E0007CB50546EF208DF8000001208DF8010053
:1006F0001A480068000E8DF8020018480068000CC7
:100700008DF8030015480088000A8DF8040013488E
:1007100000788DF8050007208DF8060000208DF880
:1007200007000F49088012E0012001F04DF90C4844
:10073000008800F4004050B1002009490880694653
:100740000848FFF711FD04460CB120467CBD681E29
:1007500080B2051EE8D100BFF8E70000A00C002021
:10076000AA0C0020B40C002008B50121142000F0D0
:100770002DFB4FF40050ADF8000048208DF8030029
:1007800069461748FFF7A2FE4FF48040ADF800001D
:1007900048208DF8030069461148FFF797FE4FF493
:1007A0000040ADF8000048208DF8030069460C4871
:1007B000FFF78CFE0220ADF8000048208DF8030002
:1007C00069460848FFF782FE0120ADF80000482086
:1007D0008DF8030069460348FFF778FE08BD000066
:1007E000001001400008014000BF0549098801F0E0
:1007F00040010029F9D00249091D08807047000016
:100800000038014000BFFEE77047000070B50021CE
:1008100000230F22C47804B3154C246804F4E06468
:10082000C4F5E064210AC1F10403CA40447804FA23
:1008300003F184781440214309010E4C0678A15538
:10084000047804F01F050124AC4005786D11AD005B
:1008500005F1E025C5F8004109E0047804F01F0522
:100860000124AC40044D0678761145F8264070BD51
:100870000CED00E000E400E080E100E0024901430B
:10088000024A1160704700000000FA050CED00E01C
:1008900010B5002000F001F810BD70B50646002428
:1008A00015E004F1B001C8B201F030F8002001F009
:1008B0002DF8102001F02AF8002504E0304601F060
:1008C0003BF8681CC5B2822DF8DB601CC4B2082C52
:1008D000E7DB70BD10B5FFF797FEAE2001F016F80C
:1008E000002001F013F8102001F010F8402001F072
:1008F0000DF8B02001F00AF8812001F007F8FF2080
:1009000001F004F8A12001F001F8A62000F0FEFF9C
:10091000A82000F0FBFF3F2000F0F8FFC82000F007
:10092000F5FFD32000F0F2FF002000F0EFFFD5200C
:1009300000F0ECFF802000F0E9FFD82000F0E6FF97
:10094000052000F0E3FFD92000F0E0FFF12000F0E7
:10095000DDFFDA2000F0DAFF122000F0D7FFDB2005
:1009600000F0D4FF302000F0D1FF8D2000F0CEFF4A
:10097000142000F0CBFFAF2000F0C8FF10BD70B511
:1009800004460D4605F1B001C8B200F0BFFFA11C3E
:10099000C1F3031141F0100000F0B8FFA11C01F0F9
:1009A0000F0141F0010000F0B1FF70BD2DE9F047EB
:1009B000074688461646002580E03078A02843DDAB
:1009C00000253AE0702F04DD002708F1020000F056
:1009D000FF0830783C4911F8151088422CD1707806
:1009E000012101EB4501384A515C884224D141463E
:1009F0003846FFF7C4FF002406E004EB4511334AF4
:100A0000505C00F099FF641C102CF6D308F1010033
:100A1000C1B23846FFF7B3FF002407E004EB4511ED
:100A200010312A4A505C00F087FF641C102CF5D36B
:100A300007F11000C7B204E06D1C2548006885422C
:100A4000C0D300BFB61C39E07A2F04DD002708F1BF
:100A5000020000F0FF0831781E48FFF797FB81463F
:100A6000B9F1000F29D041463846FFF788FF00242E
:100A700009E099F80010203904EB0111164A505C86
:100A800000F05AFF641C082CF3D308F10100C1B236
:100A90003846FFF774FF00240AE099F80010203967
:100AA00004EB011108310C4A505C00F045FF641C56
:100AB000082CF2D307F10800C7B2761C3078002862
:100AC0007FF47BAFBDE8F087DC0B00201C06002024
:100AD0009C0C0020390C00202C0000202DE9F04156
:100AE00007460E46904600250024A8F12000C5B216
:100AF000812F02DD0027B01CC6B231463846FFF711
:100B00003EFF002407E004EB05110E4A505C00F0A4
:100B100013FF601CC4B2082CF5DB701CC1B2384650
:100B2000FFF72DFF002408E004EB05110831054A0A
:100B3000505C00F001FF601CC4B2082CF4DBBDE87F
:100B4000F08100002C0000202DE9F0470546894681
:100B500090461E46DDF820A000242FE0301B401EEA
:100B6000C1B20A2000F086FFB8FBF0F00A21B0FB0A
:100B7000F1F201FB1207A7B9BAF1000F08D0082162
:100B800001FB0451C8B230224946FFF7A7FF07E036
:100B9000082101FB0451C8B220224946FFF79EFFFD
:100BA0000AE007F13001CAB2082101FB0451C8B2C2
:100BB0004946FFF793FF00BF601CC4B2B442CDDBCF
:100BC000BDE8F08770B500F0B6F900F08BF90120B0
:100BD00000F0ABF9032000F0B6F90D2000F0BDF9EC
:100BE0001126304600F098F94FF4FA60FFF778FDCF
:100BF00005460DB16C7A00E0FF24204670BD2DE95A
:100C0000F041054600F097F900F06CF9012000F082
:100C10008CF9042000F097F9022000F09EF9284694
:100C2000FFF7E2FDEF1D384600F076F94FF4FA6069
:100C3000FFF756FD06460EB1747A00E0FF24204609
:100C4000BDE8F08170B500F076F900F04BF90120B5
:100C500000F06BF9032000F076F9012000F07DF937
:100C60000526304600F058F94FF4FA60FFF738FDDA
:100C700005460DB16C7A00E0FF24204670BD70B5CA
:100C800000F059F900F02EF9012000F04EF9032090
:100C900000F059F9032000F060F90726304600F013
:100CA0003BF94FF4FA60FFF71BFD05460DB16C7A76
:100CB00000E0FF24204670BD70B500F03CF900F064
:100CC00011F9012000F031F9032000F03CF9052072
:100CD00000F043F90926304600F01EF94FF4FA609F
:100CE000FFF7FEFC05460DB16C7A00E0FF242046BC
:100CF00070BD2DE9F04106460C4600F01CF900F0ED
:100D0000F1F8012000F011F9062000F01CF906208E
:100D100000F023F93046FFF767FD2012FFF764FD6E
:100D2000E0B2FFF761FD06F10D0000EB2420E1B217
:100D300000EB0108404600F0EFF84FF4FA60FFF7CF
:100D4000CFFC07460FB17D7A00E0FF252846BDE8BD
:100D5000F081000010B500F0EEF800F0C3F80120BB
:100D600000F0E3F8032000F0EEF80A2000F0F5F8B8
:100D70000E2000F0D1F84FF4FA6000F025FE014893
:100D8000407A10BDB40C00207047000029B1064A1B
:100D9000D2690243044BDA6104E0034AD269824318
:100DA000014BDA61704700000010024029B1064A89
:100DB00012690243044B1A6104E0034A1269824338
:100DC000014B1A61704700000010024029B1064A29
:100DD00092690243044B9A6104E0034A9269824398
:100DE000014B9A61704700000010024029B1064A89
:100DF000D2680243044BDA6004E0034AD2688243BB
:100E0000014BDA60704700000010024030B500214D
:100E10000022002400232D4D6D6805F00C0121B146
:100E2000042905D0082923D105E0294D056022E0D9
:100E3000274D05601FE0254D6D6805F47012234DA8
:100E40006D6805F48034022505EB92421CB9214DF2
:100E5000554305600BE01D4D6D6805F400351DB16F
:100E60001C4D5543056002E0194D5543056002E0F5
:100E7000174D056000BF00BF144D6D6805F0F0010F
:100E80000909154D6B5C0568DD4045600F4D6D68C7
:100E900005F4E061090A104D6B5C4568DD40856032
:100EA0000A4D6D6805F46051C90A0B4D6B5C4568CD
:100EB000DD40C560054D6D6805F44041890B074D67
:100EC0006B5CC568B5FBF3F5056130BD00100240F1
:100ED00000127A0000093D001800002028000020C0
:100EE0007047000010B50B490968080EFFF77CFC3D
:100EF00008480068C0F30740FFF776FC0548008803
:100F0000C0F30720FFF770FC02490878FFF76CFC7C
:100F100010BD0000A00C002010B504462012FFF701
:100F200063FCE0B2FFF760FC10BD10B5044620463C
:100F3000FFF75AFC10BD10B5EF20FFF755FC01205C
:100F4000FFF752FC10BD10B50446C4F30720FFF7AD
:100F50004BFCE0B2FFF748FC10BD10B5044620463C
:100F6000FFF742FC10BD000070B5ADF5617D0023B8
:100F700042E0002223E04FF4967000FB0320494931
:100F8000085C04094FF4967000FB0320085C00F035
:100F90000F05204600F03EFD02EB42010DF8010076
:100FA000284600F037FD02EB4201491C0DF8010014
:100FB000202102EB4200801C0DF80010521CB2F5FB
:100FC000967FD8DB00BF3848008800F0400000283A
:100FD000F9D000200CE01DF80010334A121D1180DA
:100FE00000BF3149098801F040010029F9D0401CB7
:100FF000B0F5617FEFDB5B1C4FF49670584342F213
:1010000028318842B5DB002342E0002223E04FF480
:10101000967000FB03202549085C04094FF4967084
:1010200000FB0320085C00F00F05204600F0F2FCF6
:1010300002EB42010DF80100284600F0EBFC02EB48
:101040004201491C0DF80100202102EB4200801CE6
:101050000DF80010521CB2F5967FD8DB00BF124885
:10106000008800F040000028F9D000200CE01DF8B6
:1010700000100D4A121D118000BF0B49098801F0B4
:1010800040010029F9D0401CB0F5617FEFDB5B1C0B
:101090004FF49670584342F228318842B5DB0DF583
:1010A000617D70BDB40C0020004400406C31002014
:1010B00010B500F001F810BD0CB5002001900090B3
:1010C0003348006840F480303149086000BF304840
:1010D000006800F4003000900198401C01900098D6
:1010E00018B90198B0F5A06FF1D12948006800F453
:1010F000003010B10120009001E000200090009825
:10110000012843D12348006840F0100021490860BD
:101110000846006820F0030008600846006840F0B8
:10112000020008601A48406819494860084640684B
:1011300048600846406840F480604860084640685F
:1011400020F47C1048600846406840F4E81048608D
:101150000846006840F08070086000BF0C480068D6
:1011600000F000700028F9D00948406820F0030022
:10117000074948600846406840F00200486000BFE8
:101180000348406800F00C000828F9D10CBD0000AD
:1011900000100240002002407047042808D14FF0A0
:1011A000E021096941F004014FF0E022116107E0FC
:1011B0004FF0E021096921F004014FF0E0221161B4
:1011C0007047704710B51348006840F0010011499E
:1011D000086008464068104908400E4948600846C3
:1011E00000680E4908400B4908600846006820F472
:1011F000802008600846406820F4FE0048604FF4F4
:101200001F008860FFF754FF4FF00060044908603A
:1012100010BD0000001002400000FFF8FFFFF6FEC6
:1012200008ED00E010B50121880700F05EF870B10C
:101230000748008840F400400549088001218807DC
:1012400000F044F800214FF0804000F042F810BD5B
:10125000AA0C00207FB505460C4601210846FFF781
:1012600095FDADF80450ADF800400020ADF8060043
:10127000ADF8020069464FF0804000F053F80122BB
:101280001146900700F042F80121880700F021F88C
:101290001C208DF80C0000208DF80D0002208DF828
:1012A0000E0001208DF80F0003A8FFF7AFFA7FBDF5
:1012B00010B50121044800F018F818B101210248C6
:1012C00000F004F810BD000000040040CA43028290
:1012D000704721B1028842F00102028004E00288D6
:1012E0004FF6FE731A400280704730B50246002068
:1012F00000230024158A05EA0103958905EA010403
:1013000013B10CB1012000E0002030BD1AB1838977
:101310000B43838102E083898B43838170478184FF
:1013200070470000002202881D4B98420ED01D4BD2
:1013300098420BD0B0F1804F08D01B4B984205D09B
:101340001A4B984202D01A4B984204D14FF68F7331
:101350001A404B881A43174B984207D0164B9842B5
:1013600004D04FF6FF431A40CB881A4302808B8883
:1013700083850B8803850A4B98420BD0094B984212
:1013800008D00E4B984205D00D4B984202D00D4B21
:10139000984201D10B7A03860123838270470000B3
:1013A000002C0140003401400004004000080040CF
:1013B000000C0040001000400014004000400140BC
:1013C000004401400048014070B540F225512448D6
:1013D00000F050F9002841D0214800F007FAC4B2CB
:1013E0002048008800F4004088BB1E48008842F274
:1013F0002831884213DA00214FF08040FFF78FFF39
:101400001848008818B901218807FFF762FF1549BD
:101410000888411C134A118013490C541EE01148DE
:10142000008842F22831884212DB00214FF08040D0
:10143000FFF775FF0B480088A0F50C50283885B2DF
:1014400008480088401C074908800848445505E0C2
:101450000448008840F400400249088070BD000044
:1014600000380140AA0C0020B40C00206C31002090
:1014700010B586B0044601210420FFF7A7FC012126
:101480008803FFF7A3FC2A4800F0A6F84FF4007089
:10149000ADF8100003208DF8120018208DF813000D
:1014A00004A92448FFF712F84FF48060ADF810004B
:1014B00004208DF8130004A91E48FFF707F80094D4
:1014C0000020ADF80400ADF80600ADF80800ADF856
:1014D0000C000C20ADF80A006946154800F01AF916
:1014E0000121134800F06CF8012240F22551104808
:1014F00000F0EAF825208DF8140002208DF8150080
:1015000003208DF8160001208DF8170005A8FFF7BD
:101510007DF941F61F416320FFF79CFE002006493C
:10152000088000214FF08040FFF7D3FE06B010BDC9
:101530000038014000080140AA0C002010B540F21C
:101540002771104800F096F820B140F227710D483D
:1015500000F027F840F225510A4800F08BF878B1E6
:101560000848001D008858B10648001D008806493B
:10157000064A1268885405480068401C0349086000
:1015800010BD00000044004098540020B00C002022
:1015900001F40072B2F5007F00D100BFCA4302809F
:1015A000704710B50022002340F66A14A14200D112
:1015B00000BF0A1201249440A3B2DC43048010BD92
:1015C00021B1828942F40052828104E082894DF681
:1015D000FF731A408281704710B504462048844248
:1015E00009D101218803FFF701FC00214FF480405D
:1015F000FFF7FCFB32E01B48844209D1012148047B
:10160000FFF7D4FB00214FF40030FFF7CFFB25E0BC
:101610001548844209D101218804FFF7C7FB002146
:101620004FF48020FFF7C2FB18E01048844209D134
:101630000121C804FFF7BAFB00214FF40020FFF797
:10164000B5FB0BE00A48844208D101210805FFF7E9
:10165000ADFB00214FF48010FFF7A8FB10BD000088
:10166000003801400044004000480040004C004069
:101670000050004070B502460024002300250020E1
:1016800040F66A16B14200D100BFC1F3421501F025
:101690001F03012606FA03F3012D02D19689334078
:1016A00006E0022D02D1168A334001E0968A3340CB
:1016B0000C12012606FA04F41688344013B10CB15A
:1016C000012000E0002070BDF0B503460024002694
:1016D0000025002040F66A17B94200D100BF184625
:1016E000C1F3421401F01F06012707FA06F5012C89
:1016F00001D10C3004E0022C01D1103000E0143094
:101700001AB107682F43076002E00768AF4307601C
:10171000F0BD00002DE9F04786B005460E460024D6
:10172000A24600BFA1460027B08900B100BF2F46E6
:101730002C8A4CF6FF700440F08804432C82AC895C
:101740004EF6F3100440B08831890843718908438C
:101750000443AC81AC8A4FF6FF400440B089044397
:10176000AC8201A8FFF752FB1F48874202D1DDF887
:1017700010A001E0DDF80CA0A88900F4004040B101
:101780000AEBCA0000EB0A1031684900B0FBF1F81F
:1017900007E00AEBCA0000EB0A1031688900B0FBD1
:1017A000F1F86420B8FBF0F004012009642101FB8A
:1017B0001089A88900F4004040B1322000EBC90034
:1017C000B0FBF1F000F00700044308E0322000EB2A
:1017D00009106421B0FBF1F000F00F0004432C81EC
:1017E00006B0BDE8F0870000003801400146888857
:1017F000C0F30800704700BFFEE7000010B586B0D8
:1018000004464FF4A060FFF739F801214804FFF7C0
:10181000BDFA01210420FFF7D9FA2448FFF7DCFEC6
:101820000420ADF8140003208DF8160018208DF860
:10183000170005A91E48FEF749FE0820ADF8140060
:1018400004208DF8170005A91948FEF73FFE019402
:101850000020ADF80800ADF80A00ADF80C00ADF8B6
:1018600010000C20ADF80E0001A91048FFF752FF40
:1018700020210E48FFF78CFE012240F225510B4833
:10188000FFF722FF26208DF8000000208DF80100D0
:101890008DF8020001208DF803006846FEF7B6FFC0
:1018A00001210248FFF78CFE06B010BD0044004045
:1018B0000008014070B50446002520E004F08000D7
:1018C00018B101200F49086002E000200D490860AE
:1018D000FEF792FE01200B49091F0860FEF78CFEFF
:1018E00000200949C1F89801072D02D101200549BE
:1018F00008606006040EFEF77FFE681CC5B2082D66
:10190000DCDB70BD9C8121420080214210B5044681
:10191000FEF798FE7820FFF7CDFFFEF7BFFE002010
:10192000FFF7C8FFFEF7BAFE2046FFF7C3FFFEF73A
:10193000B5FEFEF7A1FE10BD10B50446FEF782FE0F
:101940007820FFF7B7FFFEF7A9FE4020FFF7B2FFB0
:10195000FEF7A4FE2046FFF7ADFFFEF79FFEFEF761
:101960008BFE10BD02E008C8121F08C1002AFAD180
:1019700070477047002001E001C1121F002AFBD10F
:101980007047000010B56FF00400FFF706FC0A482E
:1019900000680A49B0FBF1F0094908700846007870
:1019A00000EB4001C1EBC0104FF6FF7101EAC0002F
:1019B0000449088010BD00000000002000127A00D9
:1019C00014000020160000200146114A12884A43E4
:1019D0004FF0E0235A6100229A611A46126942F0E0
:1019E00001021A6100BF4FF0E022106900F001020D
:1019F0001AB100F48032002AF5D04FF0E0221269CB
:101A000022F001024FF0E0231A6100229A61704730
:101A100016000020002805DB092803DC00F1300156
:101A2000C8B206E00A2804DB0F2802DC00F1370107
:101A3000C8B27047FEF73EFD0D490860FFF7A2FFF0
:101A4000FEF748FF4FF4A060FEF718FF4FF4614027
:101A5000FFF70EFD4FF4E130FFF7D0FEFEF784FEF6
:101A6000FEF716FFFEF7EEFC01E0FEF7D7FBFCE702
:101A70009C0C002010B50246012000E050430B1ED4
:101A8000A1F10104E1B2F9D110BD000070B500244C
:101A900000262BE0FFF7D6F80546C5B9FEF7F8FE9D
:101AA00014A202211020FEF781FFFFF753F905462B
:101AB000E5B9FEF7EDFE13A202211020FEF776FF36
:101AC000FFF752FA4FF47A70FFF77EFF0EE0FEF751
:101AD000DFFE0EA202212020FEF768FF601CC4B2C8
:101AE0000A20FFF771FF052C00D100E0D2E700BF0C
:101AF00070BD0000D6B8CEC6D1E9D6A4B3C9B9A688
:101B000000000000D6B8B9A600000000C7EBB0B4D2
:101B1000CAD6D6B800000000381B0008000000201C
:101B2000B40C0000C401000824240008B40C0020F8
:101B3000E4530000741900081184A24A04A80901A2
:101B400002030406070809106914051302040608B5
:101B500072F852331C100C0603912C40C07803110C
:101B60002C043F040321367088FC0830261820FF1F
:101B7000211E14F008F033E0184D211C031E113310
:101B80008870000C101E2123241927211010160E16
:101B900045E018040225071820403D020418E069BA
:101BA0002C20180707174080F08040403F020201B8
:101BB0000F0102283AF0C81C01011F04912B80B0CC
:101BC00066B1191D2901912A30A5592C14601804F9
:101BD0003C6018061D1EE010080810721F0F102030
:101BE00020100FF05310F83620203F20203C7008C2
:101BF00008C21E3028242221441E30088888480844
:101C00002E1820202011CC3BC0203227070424248A
:101C10003F241AF8202308084B19212036E01088A9
:101C200088184B0F11101E380808C8382021523F61
:101C30001A702E29608F1C222121221C90111D3127
:101C4000222211901961CAC0C26A80C659081C407C
:101C5000201050170102040810204A4001114A04C4
:101C6000012119152A403219251B0402F21B704864
:101C7000D13AF0501A360F1EC030C828E870280834
:101C80000718272423140B6F2A387E280D203C23A5
:101C9000020227382008F888889F4B203FF01BC09D
:101CA000303F1B083830191019781B08F80F1940FD
:101CB00039201B100F103E8888E8081010AC232034
:101CC0001810112A035E2940223829402C221E02B6
:101CD0004019A41809F808203F21010121252A08EC
:101CE00052298129424149112EC08080807F0E2FC8
:101CF000F888C0281808501C0126382F2940292FA1
:101D000029801B20301012F81AF81413203F1902F2
:101D100029204B30C0601A2074123F4BE010B06B8A
:101D20000F10B029D01AF0301980220179203F1805
:101D3000242438504FC04C888870C0140C30204B7D
:101D40007088C11738202121221C3A189F4A188216
:101D500039A049D0112A1F90121F240878881BC867
:101D600038151C07380E60191A1AF8201114033C94
:101D70000714073C03481408186880806818082076
:101D8000302C03032C30200838C82F5950298F29B4
:101D9000102F203826212020681145FE020202253E
:101DA0007F4040401A0CE0611C0106380B191D42AF
:101DB000FE191D527F1A04120211045A80011930B3
:101DC000D91D391621180819242222223F20AB39A7
:101DD0000F115F3F112020110E21311A0E104B20E0
:101DE00011104B88F8102A10B359401A1F3F2B22AC
:101DF000130F16F0888888181A20D029D1497A2123
:101E0000176B94949493603960190F4C203F21F321
:101E100054809898793059121AC02719D11930393D
:101E2000311F203F24022D30212A0812893069D722
:101E3000294B2903190BC96079A019BF2B201FDD7D
:101E4000390F9C80FFA1E0191229D03BA0FF0C396B
:101E500050194112208A01C01B3324012A190F3A5C
:101E6000E0413952290F392349603C103F202C2989
:101E7000053F010E3008060170291038080F300C9C
:101E8000030C300F2C49A14E312E0E31200C29624B
:101E90001D818E70183059D1215721302C222130CC
:101EA00055807C0202443F404072FF39083C0202E8
:101EB0007C8F5440403F4E02010202042F41171014
:101EC0001010FF109010093F484844444442701DD0
:101ED0000444827F662BFF49011941200F2030AC5A
:101EE00063100808F8090E08F80808180E2267227F
:101EF0001292804021160816214088200F1010D021
:101F0000FF9014E4AFA4A4A4AFE4041B040377106F
:101F10000B894B2A1A0E1A2A4B888019F61808FFCB
:101F20002020080808FF041AF870100F30100F88DE
:101F30004821110D030D11214181151060028C16ED
:101F4000FE02F202FE2AF8B1100B04047E01804763
:101F5000300F10272C47807FB71342CC2A90013EC8
:101F6000FF10111610E6100C1028603F1010010E23
:101F70003040F0172424A4FE23222B3E2201223ECF
:101F80001808080601FF010640BD1A7F04324110FF
:101F90000EFC040404141556945434140404144020
:101FA000300F1F01010141817F061B050310180E30
:101FB000EF242480E49C105454FF547C101C480EE1
:101FC0007F21512618274445455F454544A0380BDD
:101FD000109252321E3252921210A011100B211880
:101FE00040807F08300409312008101010FF1010C5
:101FF000F04AF8E01A8061191D211A7FFA19074E7C
:1020000080FE8282FE0539E113403F3D20BF403F04
:10201000232A4F05200FFE225A8620102824E3246D
:10202000281020202FFF040827110DA01A055F118A
:102030002B02FA3B100A4020504C434C50204010D9
:102040001008184884443F404458414E6058474067
:1020500025404042CC2D04C40404E84204180C3F3F
:102060001048407F40407F41414120291F1E445479
:1020700054547F04334440147F20101FFF1515155E
:1020800055957E39C0100C9020988888E98E8888F4
:10209000A8982C024281B64008844B28102847801B
:1020A0002A240137FC22222223222A02013C4282D6
:1020B0007F082B0202111AC20819E11901190F1A1F
:1020C000407959042901113010201808EAACA8A859
:1020D000AFA8A8ACEA0828182A3E383FFF0202122F
:1020E000221E501BF292012AFE051AF2502C040403
:1020F000FFC81F07040444847FD0CA80010112383E
:102100000B020C80608040300FC8085F180F02027D
:102110007E0180402018060106182040301708482C
:102120008808C8381A90E819EC211E20100C030406
:10213000291B4380E8413AFEA81AFF354310081CCA
:102140007F2020283A3FBF12781B02E2FA5AFE0491
:102150001AE2E112FF1D08060116044B024C421B55
:10216000F8880110090808FF08090AC808148060E7
:102170001F100C10201F80402116182641F81D0842
:102180000808F804497E22F0300F1030101F08882C
:1021900048300E014080403F1C40301E1A291E2945
:1021A0009E11181081814121110D0301030D112190
:1021B0004181819F180902FA02FE4020D8173F1979
:1021C000222F8047300F10675F1C081621E019FB93
:1021D000894019412C404042013A7F0619D8171016
:1021E00010D0FF90102008FC24E4242223E21B04DA
:1021F00003C21F83601F804126A0228014020CC0EE
:102200002EF808484848C2128A2C02027F982009FA
:102210001E925E20173846F1158060F8071A3EFCC2
:102220003422223E2201100DFF2011090503FF0375
:10223000050911201808040484E41C07240116A4CD
:10224000642404041B0201602F020242827F020107
:10225000115D80808292011DFE808080A0180C227A
:10226000241048807F0408182422A0517501E21C24
:10227000E037804020100C031D030C304030111556
:102280001088C4332BBEAA012ABEAF39605B0A1284
:102290006229301C9088865A1E838C102040211998
:1022A000111318072A40C541199F180D5C44C4201A
:1022B00010E82724E4342CE040180E7F10103F80F3
:1022C000601F09093F49897F905342CC92FF2C3F00
:1022D0009048432B07185049203009FC24A424229D
:1022E00022A362280E40201F2058475048454245EF
:1022F0004850C0500CFE0202F2121212F20202FE0C
:10230000300C7F2020272424242720207F151060D4
:10231000028C1E445454547F041344401D04047E14
:10232000016D3E151515559520180F0C4424140405
:1023300005060404142444140C601B4041012A7F48
:10234000052A405F197C1E24A4643DA6531424244E
:10235000041E40300F10136F1AFF041412101010D7
:102360005DD6B8CEC6C4A3BFE9B2E2CAD4B3CCD05E
:10237000F2BCFCCCEDBCD3C9BEB3FDD1E9D6A4C739
:10238000EBB0B4CAD6D5FDB3A3D4D9D2BBB4CEB6C4
:10239000D4B1C8C1BDB3C9B9A6CAA7B0DCC9FAB027
:1023A000E5BCF5B1A3B4E6C2BCC8EBB5C3B7D6C8AB
:1023B000B7C8CFB7B5BBD8C7E5BFD5BFE2806020EF
:1023C0002122232425262728292A2B2C2D2E2F3085
:1023D0003132333435363738393A3B3C3D3E3F4075
:1023E0004142434445464748494A4B4C4D4E4F5065
:1023F0005152535455565758595A5B5C5D5E5F6055
:102400006162636465666768696A6B6C6D6E6F7044
:102410007172737475767778797A7B7C7D7E1AFF1A
:0424200001011000A6
:0400000508000145A9
:00000001FF
